:100000000C942A000C9447000C9447000C94470071
:100010000C9447000C9447000C9447000C94470044
:100020000C9447000C9447000C9488030C946103D3
:100030000C9447000C9447000C9447000C94470024
:100040000C9447000C9447000C9447000C94470014
:100050000C94470011241FBECFE5D8E0DEBFCDBF12
:1000600010E0A0E6B0E0E4E2FEE002C005900D92F0
:10007000A637B107D9F720E0A6E7B0E001C01D928E
:10008000A638B207E1F70E94E1000C9410070C9427
:10009000000085BB82B38B7F82BB82B38D7F82BB26
:1000A00082B3816082BB82E08A95F1F700C082B39F
:1000B0008E7F82BB8FE697E10197F1F700C00000C9
:1000C00008958FEF81BB84BB8FE39CE90197F1F723
:1000D00000C0000088E30E9449008CE00E944900B3
:1000E00086E00E94490081E00E944900089585BB96
:1000F00082B3846082BB82B38D7F82BB82B3816016
:1001000082BB82E08A95F1F700C082B38E7F82BB0A
:100110008FEC97E00197F1F700C0000008950F936E
:100120001F93CF93DF938C01C0E0D0E003C00E9407
:1001300077002196F801EC0FFD1F80818111F7CF28
:10014000DF91CF911F910F910895813039F4603183
:1001500068F480E8860F0E9449000895823031F4E7
:10016000603120F480EC860F0E94490008950F93BF
:100170001F93CF93DF9300D000D000D0CDB7DEB770
:100180001F928F9380E690E09F938F938E010F5F75
:100190001F4F1F930F930E942604C8010E948F00D7
:1001A0000F900F900F900F900F900F9026960FB614
:1001B000F894DEBF0FBECDBFDF91CF911F910F919D
:1001C0000895CF93DF93CDB7DEB760970FB6F8945D
:1001D000DEBF0FBECDBF88E6898382E08A831B82A3
:1001E000CE0101960E942E031E8281E08987188627
:1001F00080E48F831A86CE0106960E9471010E94C8
:10020000610068B341E080E00E94EA0168B341E028
:1002100081E00E94EA0168B341E080E00E948C0224
:1002200068B340E081E00E948C0283E690E00E9487
:100230008F0060E082E00E94A5008AE690E00E94C4
:100240008F001D861E861F86188AF12C66E081E0CD
:100250000E94A50041E0BE01635F7F4F80E00E94E5
:100260009C012D853E854F855889A8E8B3E10E9401
:10027000F80320E038E240E050E00E94D603122F5D
:10028000822F0E94B70083E40E947700193180F02A
:1002900087EE810F8A3070F08DED810F8A3078F013
:1002A00083ED810F8A3080F017531A3090F015C01B
:1002B000F12C13C00F2EF9E1FF2EF02D0EC00F2EE2
:1002C000F2E3FF2EF02D09C00F2EFBE4FF2EF02DE0
:1002D00004C00F2EF2E6FF2EF02D8F2D0E94AF03EB
:1002E000B5CFCF93DF93EC0187E0FE01A6E7B0E046
:1002F00001900D928A95E1F797B18981892B87B991
:1003000097B18A81892B87B996B18B81892B86B960
:1003100096B18C81892B86B98C81883009F47894C8
:1003200086B1806886B98881813019F486B180648D
:1003300086B9DF91CF91089597B19E7F97B997B114
:100340009D7F97B997B19B7F97B997B1977F97B9E1
:1003500097B19F7E97B997B1982B97B95AB321E07F
:1003600030E0F90102C0EE0FFF1F8A95E2F7CF01DE
:10037000809585238ABB80917600811103C086B168
:10038000806486B9413011F5349BFECF80917800AE
:10039000803281F424B1229526952695237085B16B
:1003A00090E0880F991F880F991F822BFB01918382
:1003B00080830CC081110AC024B185B1837090E0A4
:1003C000982F8827822BFB019183808386B18F7EB3
:1003D00086B90895883008F093C0623669F118F440
:1003E000613641F08FC0633609F448C0643609F4C1
:1003F00066C088C041110FC04AB321E030E0B901A6
:1004000002C0660F771F8A95E2F7CB01809584239F
:100410008ABB81E00895413009F076C04AB321E0FB
:1004200030E0B90102C0660F771F8A95E2F7CB0171
:10043000842B8ABB81E0089541110FC047B321E0AE
:1004400030E0B90102C0660F771F8A95E2F7CB0151
:100450008095842387BB81E00895413009F056C020
:1004600047B321E030E0B90102C0660F771F8A95DB
:10047000E2F7CB01842B87BB81E0089541110FC0C7
:1004800044B321E030E0B90102C0660F771F8A95BE
:10049000E2F7CB018095842384BB81E0089541304D
:1004A000B9F544B321E030E0B90102C0660F771F0F
:1004B0008A95E2F7CB01842B84BB81E0089541113A
:1004C0000FC041B321E030E0B90102C0660F771FD1
:1004D0008A95E2F7CB018095842381BB81E0089562
:1004E0004130C1F441B321E030E0B90102C0660FF0
:1004F000771F8A95E2F7CB01842B81BB81E00895B9
:1005000080E0089581E0089580E0089580E00895F6
:1005100080E0089580E00895883008F093C0623646
:1005200069F118F4613641F08FC0633609F448C0B0
:10053000643609F466C088C041110FC04BB321E096
:1005400030E0B90102C0660F771F8A95E2F7CB0150
:10055000809584238BBB81E00895413009F076C0FB
:100560004BB321E030E0B90102C0660F771F8A95D6
:10057000E2F7CB01842B8BBB81E0089541110FC0C2
:1005800048B321E030E0B90102C0660F771F8A95B9
:10059000E2F7CB018095842388BB81E00895413048
:1005A00009F056C048B321E030E0B90102C0660F3F
:1005B000771F8A95E2F7CB01842B88BB81E00895F1
:1005C00041110FC045B321E030E0B90102C0660F10
:1005D000771F8A95E2F7CB018095842385BB81E064
:1005E00008954130B9F545B321E030E0B90102C0CA
:1005F000660F771F8A95E2F7CB01842B85BB81E0DC
:10060000089541110FC042B321E030E0B90102C0AA
:10061000660F771F8A95E2F7CB018095842382BB12
:1006200081E008954130C1F442B321E030E0B901E6
:1006300002C0660F771F8A95E2F7CB01842B82BB3D
:1006400081E0089580E0089581E0089580E00895B4
:1006500080E0089580E0089580E00895CF93DF93CF
:10066000EC0185E0FE01AFE7B0E001900D928A95C4
:10067000E1F793B78881892B83BF8881883611F091
:10068000883719F487B3886087BB93B78981892B32
:1006900083BF89818650823018F487B38E7F87BBF1
:1006A00099B78A81892B89BF8A81882309F0789438
:1006B0008B819C819093850080938400DF91CF9102
:1006C00008951F920F920FB60F9211242F933F930C
:1006D0004F935F936F937F938F939F93AF93BF934A
:1006E000EF93FF93E0918400F09185000995FF91CD
:1006F000EF91BF91AF919F918F917F916F915F919A
:100700004F913F912F910F900FBE0F901F90189512
:100710001F920F920FB60F9211242F933F934F9376
:100720005F936F937F938F939F93AF93BF93EF9359
:10073000FF93E0918400F09185000995FF91EF917E
:10074000BF91AF919F918F917F916F915F914F91E9
:100750003F912F910F900FBE0F901F901895909181
:100760007F00983651F42FEF829FC001112464E678
:1007700070E00E94C2036CBF0895983711F4809511
:100780008CBF089597FB072E16F4009407D077FDD1
:1007900009D00E94030407FC05D03EF49095819592
:1007A0009F4F0895709561957F4F0895A1E21A2E8D
:1007B000AA1BBB1BFD010DC0AA1FBB1FEE1FFF1F05
:1007C000A217B307E407F50720F0A21BB30BE40B55
:1007D000F50B661F771F881F991F1A9469F760959C
:1007E0007095809590959B01AC01BD01CF01089556
:1007F0000E941704A59F900DB49F900DA49F800D9B
:10080000911D11240895AA1BBB1B51E107C0AA1F0B
:10081000BB1FA617B70710F0A61BB70B881F991FA1
:100820005A95A9F780959095BC01CD010895A29F96
:10083000B001B39FC001A39F700D811D1124911DB4
:10084000B29F700D811D1124911D0895AEE0B0E09E
:10085000ECE2F4E00C94E7060D891E8986E08C83B7
:100860001A8309838FEF9FE79E838D83AE01475ED6
:100870005F4F6F89788DCE0101960E944804EF8109
:10088000F885E00FF11F10822E96E4E00C94030728
:10089000ABE0B0E0EEE4F4E00C94D9066C017B012F
:1008A0008A01FC0117821682838181FFCCC1CE01AF
:1008B00001963C01F6019381F70193FD859193FF29
:1008C00081917F01882309F4BAC1853239F493FDFF
:1008D000859193FF81917F01853229F4B60190E0E3
:1008E0000E943F06E7CF912C212C312CFFE1F3151C
:1008F000D8F08B3279F038F4803279F08332A1F479
:10090000232D20611DC08D3261F0803369F4232DC9
:10091000216016C0832D8260382EE32DE4603E2EC8
:100920002AC0F32DF8601DC037FC2DC020ED280F24
:100930002A3040F08E32B9F436FC81C1232D206478
:10094000322E19C036FE06C08AE0989E200D112472
:10095000922E11C0EAE02E9E200D1124222EF32D9E
:10096000F0623F2E08C08C3621F4832D8068382E2B
:1009700002C0883641F4F70193FD859193FF819180
:100980007F018111B3CF982F9F7D9554933028F428
:100990000C5F1F4F9FE399830DC0833631F083377F
:1009A00071F0833509F059C021C0F8018081898335
:1009B0000E5F1F4F88248394912C530113C028018C
:1009C000F2E04F0E511CF801A080B18036FE03C04A
:1009D000692D70E002C06FEF7FEFC5010E94340601
:1009E0004C018201F32DFF773F2E16C0280122E033
:1009F000420E511CF801A080B18036FE03C0692D63
:100A000070E002C06FEF7FEFC5010E9429064C0124
:100A1000F32DF0683F2E820133FC1BC0822D90E045
:100A200088169906B0F4B60180E290E00E943F0675
:100A30002A94F4CFF50137FC859137FE81915F014F
:100A4000B60190E00E943F0621102A9421E0821A0C
:100A500091088114910471F7E8C0843611F0893649
:100A600041F5F80137FE07C0608171818281938171
:100A70000C5F1F4F08C060817181072E000C880B2E
:100A8000990B0E5F1F4FF32DFF763F2E97FF09C086
:100A900090958095709561957F4F8F4F9F4FF0682F
:100AA0003F2E2AE030E0A3010E947B06882E8618A4
:100AB00045C0853731F4232D2F7EB22E2AE030E059
:100AC00025C0932D997FB92E8F36C1F018F4883543
:100AD00079F0B5C0803719F0883721F0B0C0E92F20
:100AE000E061BE2EB4FE0DC0FB2DF460BF2E09C028
:100AF00034FE0AC0292F2660B22E06C028E030E05E
:100B000005C020E130E002C020E132E0F801B7FE8C
:100B100007C060817181828193810C5F1F4F06C085
:100B20006081718180E090E00E5F1F4FA3010E9401
:100B30007B06882E8618FB2DFF773F2E36FE0DC0D4
:100B4000232D2E7FA22E891458F434FE0BC032FCC4
:100B500009C0832D8E7EA82E05C0B82CA32C03C0FF
:100B6000B82C01C0B92CA4FE0FC0FE01E80DF11D88
:100B70008081803321F49A2D997EA92E09C0A2FE8E
:100B800006C0B394B39404C08A2D867809F0B39458
:100B9000A3FC11C0A0FE06C0B21488F4280C922C4D
:100BA0009B180EC0B21460F4B60180E290E00E947F
:100BB0003F06B394F7CFB21418F42B1802C0982C48
:100BC000212CA4FE10C0B60180E390E00E943F06F5
:100BD000A2FE17C0A1FC03C088E790E002C088E530
:100BE00090E0B6010CC08A2D867859F0A1FE02C0B3
:100BF0008BE201C080E2A7FC8DE2B60190E00E948A
:100C00003F06891438F4B60180E390E00E943F0665
:100C10009A94F7CF8A94F301E80DF11D8081B60113
:100C200090E00E943F068110F5CF222009F442CEC9
:100C3000B60180E290E00E943F062A94F6CFF601CA
:100C40008681978102C08FEF9FEF2B96E2E10C9493
:100C5000F506FC010590615070400110D8F78095B1
:100C600090958E0F9F1F0895FC0161507040019078
:100C70000110D8F7809590958E0F9F1F08950F93C0
:100C80001F93CF93DF93FB01238121FD03C08FEFDF
:100C90009FEF2CC022FF16C04681578124813581E9
:100CA0004217530744F4A081B1819D012F5F3F4F4C
:100CB000318320838C93268137812F5F3F4F378389
:100CC000268314C08B01EC01FB010084F185E02D2B
:100CD0000995892BE1F6D80116968D919C9117976D
:100CE000019617969C938E931697CE01DF91CF9124
:100CF0001F910F910895FA01AA27283051F1203150
:100D000081F1E8946F936E7F6E5F7F4F8F4F9F4F9F
:100D1000AF4FB1E03ED0B4E03CD0670F781F891FE1
:100D20009A1FA11D680F791F8A1F911DA11D6A0FAF
:100D3000711D811D911DA11D20D009F468943F9162
:100D40002AE0269F11243019305D3193DEF6CF0161
:100D50000895462F4770405D4193B3E00FD0C9F727
:100D6000F6CF462F4F70405D4A3318F0495D31FD94
:100D70004052419302D0A9F7EACFB4E0A6959795E7
:100D8000879577956795BA95C9F7009761057105BD
:100D900008959B01AC010A2E069457954795379507
:100DA0002795BA95C9F7620F731F841F951FA01D61
:100DB00008952F923F924F925F926F927F928F92FF
:100DC0009F92AF92BF92CF92DF92EF92FF920F93DA
:100DD0001F93CF93DF93CDB7DEB7CA1BDB0B0FB6E4
:100DE000F894DEBF0FBECDBF09942A8839884888A1
:100DF0005F846E847D848C849B84AA84B984C88437
:100E0000DF80EE80FD800C811B81AA81B981CE0F2D
:100E1000D11D0FB6F894DEBF0FBECDBFED01089512
:040E2000F894FFCF74
:100E240025640054656D703A200046616E2053704D
:060E34006565643A200030
:00000001FF
